{
  "contractName": "ControlledSend",
  "abi": [
    {
      "constant": false,
      "inputs": [],
      "name": "renounceOwnership",
      "outputs": [],
      "payable": false,
      "stateMutability": "nonpayable",
      "type": "function"
    },
    {
      "constant": true,
      "inputs": [],
      "name": "owner",
      "outputs": [
        {
          "name": "",
          "type": "address"
        }
      ],
      "payable": false,
      "stateMutability": "view",
      "type": "function"
    },
    {
      "constant": true,
      "inputs": [],
      "name": "isOwner",
      "outputs": [
        {
          "name": "",
          "type": "bool"
        }
      ],
      "payable": false,
      "stateMutability": "view",
      "type": "function"
    },
    {
      "constant": true,
      "inputs": [],
      "name": "currentTime",
      "outputs": [
        {
          "name": "",
          "type": "uint256"
        }
      ],
      "payable": false,
      "stateMutability": "view",
      "type": "function"
    },
    {
      "constant": false,
      "inputs": [
        {
          "name": "newOwner",
          "type": "address"
        }
      ],
      "name": "transferOwnership",
      "outputs": [],
      "payable": false,
      "stateMutability": "nonpayable",
      "type": "function"
    },
    {
      "payable": true,
      "stateMutability": "payable",
      "type": "fallback"
    },
    {
      "anonymous": false,
      "inputs": [
        {
          "indexed": true,
          "name": "source",
          "type": "address"
        },
        {
          "indexed": true,
          "name": "destination",
          "type": "address"
        },
        {
          "indexed": false,
          "name": "value",
          "type": "uint256"
        },
        {
          "indexed": false,
          "name": "transactionId",
          "type": "uint256"
        }
      ],
      "name": "LogNewTransaction",
      "type": "event"
    },
    {
      "anonymous": false,
      "inputs": [
        {
          "indexed": true,
          "name": "destination",
          "type": "address"
        },
        {
          "indexed": false,
          "name": "value",
          "type": "uint256"
        },
        {
          "indexed": false,
          "name": "transactionId",
          "type": "uint256"
        }
      ],
      "name": "LogWithdrawal",
      "type": "event"
    },
    {
      "anonymous": false,
      "inputs": [
        {
          "indexed": true,
          "name": "previousOwner",
          "type": "address"
        },
        {
          "indexed": true,
          "name": "newOwner",
          "type": "address"
        }
      ],
      "name": "OwnershipTransferred",
      "type": "event"
    },
    {
      "constant": true,
      "inputs": [
        {
          "name": "startTime",
          "type": "uint256"
        },
        {
          "name": "timeDelay",
          "type": "uint256"
        }
      ],
      "name": "getEndTime",
      "outputs": [
        {
          "name": "endTime",
          "type": "uint256"
        }
      ],
      "payable": false,
      "stateMutability": "pure",
      "type": "function"
    },
    {
      "constant": false,
      "inputs": [
        {
          "name": "_endTime",
          "type": "uint256"
        },
        {
          "name": "_destination",
          "type": "address"
        },
        {
          "name": "_data",
          "type": "bytes"
        }
      ],
      "name": "newTransaction",
      "outputs": [
        {
          "name": "_transactionId",
          "type": "uint256"
        }
      ],
      "payable": true,
      "stateMutability": "payable",
      "type": "function"
    },
    {
      "constant": true,
      "inputs": [
        {
          "name": "_transactionId",
          "type": "uint256"
        }
      ],
      "name": "getTransaction",
      "outputs": [
        {
          "name": "startTime",
          "type": "uint256"
        },
        {
          "name": "endTime",
          "type": "uint256"
        },
        {
          "name": "destination",
          "type": "address"
        },
        {
          "name": "value",
          "type": "uint256"
        },
        {
          "name": "data",
          "type": "bytes"
        },
        {
          "name": "complete",
          "type": "bool"
        }
      ],
      "payable": false,
      "stateMutability": "view",
      "type": "function"
    },
    {
      "constant": false,
      "inputs": [
        {
          "name": "_transactionId",
          "type": "uint256"
        }
      ],
      "name": "withdraw",
      "outputs": [],
      "payable": false,
      "stateMutability": "nonpayable",
      "type": "function"
    }
  ],
  "bytecode": "0x608060405242600355336000806101000a81548173ffffffffffffffffffffffffffffffffffffffff021916908373ffffffffffffffffffffffffffffffffffffffff1602179055506000809054906101000a900473ffffffffffffffffffffffffffffffffffffffff1673ffffffffffffffffffffffffffffffffffffffff16600073ffffffffffffffffffffffffffffffffffffffff167f8be0079c531659141344cd1fd0a4f28419497f9722a3daafe3b4186f6b6457e060405160405180910390a3611069806100d36000396000f3fe6080604052600436106100865760003560e01c8063715018a611610059578063715018a61461031c5780638da5cb5b146103335780638f32d59b1461038a578063d18e81b3146103b9578063f2fde38b146103e457610086565b806311bde6971461008857806326750f54146101815780632e1a7d4d146101da57806333ea3dc814610215575b005b61016b6004803603606081101561009e57600080fd5b8101908080359060200190929190803573ffffffffffffffffffffffffffffffffffffffff169060200190929190803590602001906401000000008111156100e557600080fd5b8201836020820111156100f757600080fd5b8035906020019184600183028401116401000000008311171561011957600080fd5b91908080601f016020809104026020016040519081016040528093929190818152602001838380828437600081840152601f19601f820116905080830192505050505050509192919290505050610435565b6040518082815260200191505060405180910390f35b34801561018d57600080fd5b506101c4600480360360408110156101a457600080fd5b810190808035906020019092919080359060200190929190505050610730565b6040518082815260200191505060405180910390f35b3480156101e657600080fd5b50610213600480360360208110156101fd57600080fd5b810190808035906020019092919050505061073d565b005b34801561022157600080fd5b5061024e6004803603602081101561023857600080fd5b81019080803590602001909291905050506109b9565b604051808781526020018681526020018573ffffffffffffffffffffffffffffffffffffffff1673ffffffffffffffffffffffffffffffffffffffff1681526020018481526020018060200183151515158152602001828103825284818151815260200191508051906020019080838360005b838110156102dc5780820151818401526020810190506102c1565b50505050905090810190601f1680156103095780820380516001836020036101000a031916815260200191505b5097505050505050505060405180910390f35b34801561032857600080fd5b50610331610b56565b005b34801561033f57600080fd5b50610348610c8f565b604051808273ffffffffffffffffffffffffffffffffffffffff1673ffffffffffffffffffffffffffffffffffffffff16815260200191505060405180910390f35b34801561039657600080fd5b5061039f610cb8565b604051808215151515815260200191505060405180910390f35b3480156103c557600080fd5b506103ce610d0f565b6040518082815260200191505060405180910390f35b3480156103f057600080fd5b506104336004803603602081101561040757600080fd5b81019080803573ffffffffffffffffffffffffffffffffffffffff169060200190929190505050610d15565b005b60008034116104ac576040517f08c379a00000000000000000000000000000000000000000000000000000000081526004018080602001828103825260178152602001807f496e73756666696369656e742066756e64732073656e7400000000000000000081525060200191505060405180910390fd5b3373ffffffffffffffffffffffffffffffffffffffff168373ffffffffffffffffffffffffffffffffffffffff16141561054e576040517f08c379a00000000000000000000000000000000000000000000000000000000081526004018080602001828103825260138152602001807f43616e6e6f742073656e6420746f2073656c660000000000000000000000000081525060200191505060405180910390fd5b4284116105a6576040517f08c379a000000000000000000000000000000000000000000000000000000000815260040180806020018281038252602381526020018061101b6023913960400191505060405180910390fd5b6040518060c001604052804281526020018581526020018473ffffffffffffffffffffffffffffffffffffffff16815260200134815260200183815260200160001515815250600160006002548152602001908152602001600020600082015181600001556020820151816001015560408201518160020160006101000a81548173ffffffffffffffffffffffffffffffffffffffff021916908373ffffffffffffffffffffffffffffffffffffffff160217905550606082015181600301556080820151816004019080519060200190610682929190610edf565b5060a08201518160050160006101000a81548160ff021916908315150217905550905050600254905060016002600082825401925050819055508273ffffffffffffffffffffffffffffffffffffffff163373ffffffffffffffffffffffffffffffffffffffff167f7ceb17f446514df98b2f8508b70e2099e7072ec0575cacd0b77c1e6be9694ce03484604051808381526020018281526020019250505060405180910390a39392505050565b6000818301905092915050565b6001600082815260200190815260200160002060020160009054906101000a900473ffffffffffffffffffffffffffffffffffffffff1673ffffffffffffffffffffffffffffffffffffffff163373ffffffffffffffffffffffffffffffffffffffff16146107f7576040517f08c379a0000000000000000000000000000000000000000000000000000000008152600401808060200182810382526022815260200180610ff96022913960400191505060405180910390fd5b600015156001600083815260200190815260200160002060050160009054906101000a900460ff16151514610894576040517f08c379a000000000000000000000000000000000000000000000000000000000815260040180806020018281038252601f8152602001807f5472616e73616374696f6e20697320616c726561647920636f6d706c6574650081525060200191505060405180910390fd5b600060016000838152602001908152602001600020905060018160050160006101000a81548160ff0219169083151502179055508060020160009054906101000a900473ffffffffffffffffffffffffffffffffffffffff1673ffffffffffffffffffffffffffffffffffffffff166108fc82600301549081150290604051600060405180830381858888f19350505050158015610936573d6000803e3d6000fd5b508060020160009054906101000a900473ffffffffffffffffffffffffffffffffffffffff1673ffffffffffffffffffffffffffffffffffffffff167ff9226daf630542048a23086c6af599511aac100ec8f532793cc9697d061bed7e826003015484604051808381526020018281526020019250505060405180910390a25050565b600080600080606060006109cb610f5f565b600160008981526020019081526020016000206040518060c001604052908160008201548152602001600182015481526020016002820160009054906101000a900473ffffffffffffffffffffffffffffffffffffffff1673ffffffffffffffffffffffffffffffffffffffff1673ffffffffffffffffffffffffffffffffffffffff16815260200160038201548152602001600482018054600181600116156101000203166002900480601f016020809104026020016040519081016040528092919081815260200182805460018160011615610100020316600290048015610af65780601f10610acb57610100808354040283529160200191610af6565b820191906000526020600020905b815481529060010190602001808311610ad957829003601f168201915b505050505081526020016005820160009054906101000a900460ff1615151515815250509050806000015181602001518260400151836060015184608001518560a001518393508191509650965096509650965096505091939550919395565b610b5e610cb8565b610bd0576040517f08c379a00000000000000000000000000000000000000000000000000000000081526004018080602001828103825260208152602001807f4f776e61626c653a2063616c6c6572206973206e6f7420746865206f776e657281525060200191505060405180910390fd5b600073ffffffffffffffffffffffffffffffffffffffff166000809054906101000a900473ffffffffffffffffffffffffffffffffffffffff1673ffffffffffffffffffffffffffffffffffffffff167f8be0079c531659141344cd1fd0a4f28419497f9722a3daafe3b4186f6b6457e060405160405180910390a360008060006101000a81548173ffffffffffffffffffffffffffffffffffffffff021916908373ffffffffffffffffffffffffffffffffffffffff160217905550565b60008060009054906101000a900473ffffffffffffffffffffffffffffffffffffffff16905090565b60008060009054906101000a900473ffffffffffffffffffffffffffffffffffffffff1673ffffffffffffffffffffffffffffffffffffffff163373ffffffffffffffffffffffffffffffffffffffff1614905090565b60035481565b610d1d610cb8565b610d8f576040517f08c379a00000000000000000000000000000000000000000000000000000000081526004018080602001828103825260208152602001807f4f776e61626c653a2063616c6c6572206973206e6f7420746865206f776e657281525060200191505060405180910390fd5b610d9881610d9b565b50565b600073ffffffffffffffffffffffffffffffffffffffff168173ffffffffffffffffffffffffffffffffffffffff161415610e21576040517f08c379a0000000000000000000000000000000000000000000000000000000008152600401808060200182810382526026815260200180610fd36026913960400191505060405180910390fd5b8073ffffffffffffffffffffffffffffffffffffffff166000809054906101000a900473ffffffffffffffffffffffffffffffffffffffff1673ffffffffffffffffffffffffffffffffffffffff167f8be0079c531659141344cd1fd0a4f28419497f9722a3daafe3b4186f6b6457e060405160405180910390a3806000806101000a81548173ffffffffffffffffffffffffffffffffffffffff021916908373ffffffffffffffffffffffffffffffffffffffff16021790555050565b828054600181600116156101000203166002900490600052602060002090601f016020900481019282601f10610f2057805160ff1916838001178555610f4e565b82800160010185558215610f4e579182015b82811115610f4d578251825591602001919060010190610f32565b5b509050610f5b9190610fad565b5090565b6040518060c001604052806000815260200160008152602001600073ffffffffffffffffffffffffffffffffffffffff16815260200160008152602001606081526020016000151581525090565b610fcf91905b80821115610fcb576000816000905550600101610fb3565b5090565b9056fe4f776e61626c653a206e6577206f776e657220697320746865207a65726f2061646472657373596f7520617265206e6f742074686520696e74656e64656420726563697069656e74456e642074696d65206973206561726c696572207468616e2073746172742074696d65a165627a7a72305820afb976c034ea9a1e2c0b280bd68679049e5cae81700ffc2a7bf345c7289fb8510029",
  "source": "pragma solidity ^0.5.0;\r\n\r\nimport \"openzeppelin-solidity/contracts/ownership/Ownable.sol\";\r\n\r\n\r\ncontract ControlledSend is Ownable {\r\n    event LogNewTransaction(address indexed source, address indexed destination, uint value, uint transactionId);\r\n    event LogWithdrawal(address indexed destination, uint value, uint transactionId);\r\n    mapping (uint => Transaction) transactions;\r\n    uint transactionId;\r\n    \r\n    /*\r\n     * Time related state variables\r\n     */\r\n    uint public currentTime = now;\r\n    ///@dev time increments in seconds\r\n    uint constant DAY = 86400;\r\n    uint constant HOUR = 3600;\r\n    uint constant MINUTE = 60;\r\n\r\n    ///@dev end time in seconds (unix time)\r\n    struct Transaction {\r\n    uint startTime;\r\n     uint endTime;\r\n     address payable destination;\r\n     uint value;\r\n     bytes data;\r\n     bool complete;\r\n    }\r\n    \r\n    // @dev Fallback function allows to deposit ether.\r\n    function() external payable {}\r\n    \r\n    function getEndTime(uint startTime, uint timeDelay) public pure returns(uint endTime){\r\n        endTime = startTime + timeDelay;\r\n    }\r\n\r\n    /// @dev Allows a user to submit a new transaction.\r\n    /// @param _endTime unix time (seconds) to unlock transaction\r\n    /// @param _destination Transaction target address.\r\n    /// @param _data Transaction data payload.\r\n    /// @return Returns transaction ID.\r\n    function newTransaction(\r\n        uint _endTime, \r\n        address payable _destination, \r\n        bytes memory _data\r\n    ) \r\n        public \r\n        payable\r\n        returns (uint _transactionId)\r\n    {\r\n        require(msg.value > 0, \"Insufficient funds sent\");\r\n        require(_destination != msg.sender, \"Cannot send to self\");\r\n        require(_endTime > now, \"End time is earlier than start time\");\r\n        transactions[transactionId] = Transaction({\r\n            startTime: now,\r\n            endTime:_endTime,\r\n            destination: _destination,\r\n            value: msg.value,\r\n            data: _data,\r\n            complete: false\r\n        });\r\n        _transactionId = transactionId;\r\n        transactionId +=1;\r\n        emit LogNewTransaction(msg.sender, _destination, msg.value, _transactionId);\r\n    }\r\n    \r\n    function getTransaction(uint _transactionId) public view\r\n    returns\r\n    (\r\n        uint startTime, \r\n        uint endTime, \r\n        address destination, \r\n        uint value,\r\n        bytes memory data,\r\n        bool complete\r\n    )\r\n    {\r\n        Transaction memory currentTransaction = transactions[_transactionId];\r\n        return \r\n        (\r\n            currentTransaction.startTime,\r\n            currentTransaction.endTime,\r\n            currentTransaction.destination,\r\n            currentTransaction.value,\r\n            currentTransaction.data,\r\n            currentTransaction.complete\r\n        );\r\n    }\r\n    \r\n    function withdraw(uint _transactionId) public{\r\n        require(msg.sender == transactions[_transactionId].destination, \"You are not the intended recipient\");\r\n        require(transactions[_transactionId].complete == false, \"Transaction is already complete\");\r\n        Transaction storage currentTransaction = transactions[_transactionId];\r\n        currentTransaction.complete = true;\r\n        currentTransaction.destination.transfer(currentTransaction.value);\r\n        emit LogWithdrawal(currentTransaction.destination, currentTransaction.value, _transactionId);\r\n\r\n    }\r\n}",
  "sourcePath": "C:/Users/suhailRyzen/Dropbox/School_Stuff/Consensys/decay-send/contracts/ControlledSend.sol",
  "compiler": {
    "name": "solc",
    "version": "0.5.8+commit.23d335f2.Emscripten.clang"
  },
  "schemaVersion": "3.0.11",
  "updatedAt": "2019-07-26T12:04:57.060Z",
  "devdoc": {
    "methods": {
      "isOwner()": {
        "details": "Returns true if the caller is the current owner."
      },
      "newTransaction(uint256,address,bytes)": {
        "return": "Returns transaction ID."
      },
      "owner()": {
        "details": "Returns the address of the current owner."
      },
      "renounceOwnership()": {
        "details": "Leaves the contract without owner. It will not be possible to call `onlyOwner` functions anymore. Can only be called by the current owner.     * > Note: Renouncing ownership will leave the contract without an owner, thereby removing any functionality that is only available to the owner."
      },
      "transferOwnership(address)": {
        "details": "Transfers ownership of the contract to a new account (`newOwner`). Can only be called by the current owner."
      }
    }
  },
  "userdoc": {
    "methods": {}
  }
}