{
  "contractName": "PaySafe",
  "abi": [
    {
      "constant": false,
      "inputs": [],
      "name": "renounceOwnership",
      "outputs": [],
      "payable": false,
      "stateMutability": "nonpayable",
      "type": "function"
    },
    {
      "constant": true,
      "inputs": [],
      "name": "owner",
      "outputs": [
        {
          "name": "",
          "type": "address"
        }
      ],
      "payable": false,
      "stateMutability": "view",
      "type": "function"
    },
    {
      "constant": true,
      "inputs": [],
      "name": "isOwner",
      "outputs": [
        {
          "name": "",
          "type": "bool"
        }
      ],
      "payable": false,
      "stateMutability": "view",
      "type": "function"
    },
    {
      "constant": true,
      "inputs": [
        {
          "name": "",
          "type": "uint256"
        }
      ],
      "name": "transactions",
      "outputs": [
        {
          "name": "source",
          "type": "address"
        },
        {
          "name": "destination",
          "type": "address"
        },
        {
          "name": "value",
          "type": "uint256"
        },
        {
          "name": "data",
          "type": "bytes"
        },
        {
          "name": "complete",
          "type": "bool"
        }
      ],
      "payable": false,
      "stateMutability": "view",
      "type": "function"
    },
    {
      "constant": false,
      "inputs": [
        {
          "name": "newOwner",
          "type": "address"
        }
      ],
      "name": "transferOwnership",
      "outputs": [],
      "payable": false,
      "stateMutability": "nonpayable",
      "type": "function"
    },
    {
      "payable": true,
      "stateMutability": "payable",
      "type": "fallback"
    },
    {
      "anonymous": false,
      "inputs": [
        {
          "indexed": true,
          "name": "source",
          "type": "address"
        },
        {
          "indexed": true,
          "name": "destination",
          "type": "address"
        },
        {
          "indexed": false,
          "name": "value",
          "type": "uint256"
        },
        {
          "indexed": false,
          "name": "transactionId",
          "type": "uint256"
        }
      ],
      "name": "LogNewTransaction",
      "type": "event"
    },
    {
      "anonymous": false,
      "inputs": [
        {
          "indexed": true,
          "name": "destination",
          "type": "address"
        },
        {
          "indexed": false,
          "name": "value",
          "type": "uint256"
        },
        {
          "indexed": false,
          "name": "transactionId",
          "type": "uint256"
        }
      ],
      "name": "LogWithdrawal",
      "type": "event"
    },
    {
      "anonymous": false,
      "inputs": [
        {
          "indexed": true,
          "name": "source",
          "type": "address"
        },
        {
          "indexed": true,
          "name": "destination",
          "type": "address"
        },
        {
          "indexed": false,
          "name": "value",
          "type": "uint256"
        },
        {
          "indexed": false,
          "name": "transactionId",
          "type": "uint256"
        }
      ],
      "name": "LogCancelTransaction",
      "type": "event"
    },
    {
      "anonymous": false,
      "inputs": [
        {
          "indexed": true,
          "name": "previousOwner",
          "type": "address"
        },
        {
          "indexed": true,
          "name": "newOwner",
          "type": "address"
        }
      ],
      "name": "OwnershipTransferred",
      "type": "event"
    },
    {
      "constant": false,
      "inputs": [
        {
          "name": "_destination",
          "type": "address"
        },
        {
          "name": "_data",
          "type": "bytes"
        }
      ],
      "name": "newTransaction",
      "outputs": [
        {
          "name": "_transactionId",
          "type": "uint256"
        }
      ],
      "payable": true,
      "stateMutability": "payable",
      "type": "function"
    },
    {
      "constant": true,
      "inputs": [
        {
          "name": "_transactionId",
          "type": "uint256"
        }
      ],
      "name": "getTransaction",
      "outputs": [
        {
          "name": "source",
          "type": "address"
        },
        {
          "name": "destination",
          "type": "address"
        },
        {
          "name": "value",
          "type": "uint256"
        },
        {
          "name": "data",
          "type": "bytes"
        },
        {
          "name": "complete",
          "type": "bool"
        }
      ],
      "payable": false,
      "stateMutability": "view",
      "type": "function"
    },
    {
      "constant": false,
      "inputs": [
        {
          "name": "_transactionId",
          "type": "uint256"
        }
      ],
      "name": "withdraw",
      "outputs": [],
      "payable": false,
      "stateMutability": "nonpayable",
      "type": "function"
    },
    {
      "constant": false,
      "inputs": [
        {
          "name": "_transactionId",
          "type": "uint256"
        }
      ],
      "name": "cancelTransaction",
      "outputs": [],
      "payable": false,
      "stateMutability": "nonpayable",
      "type": "function"
    }
  ],
  "bytecode": "0x6080604052336000806101000a81548173ffffffffffffffffffffffffffffffffffffffff021916908373ffffffffffffffffffffffffffffffffffffffff1602179055506000809054906101000a900473ffffffffffffffffffffffffffffffffffffffff1673ffffffffffffffffffffffffffffffffffffffff16600073ffffffffffffffffffffffffffffffffffffffff167f8be0079c531659141344cd1fd0a4f28419497f9722a3daafe3b4186f6b6457e060405160405180910390a36115cd806100cf6000396000f3fe6080604052600436106100865760003560e01c8063715018a611610059578063715018a6146103195780638da5cb5b146103305780638f32d59b146103875780639ace38c2146103b6578063f2fde38b146104e257610086565b806309ca4a18146100885780632e1a7d4d146101775780633380c0d8146101b257806333ea3dc8146101ed575b005b6101616004803603604081101561009e57600080fd5b81019080803573ffffffffffffffffffffffffffffffffffffffff169060200190929190803590602001906401000000008111156100db57600080fd5b8201836020820111156100ed57600080fd5b8035906020019184600183028401116401000000008311171561010f57600080fd5b91908080601f016020809104026020016040519081016040528093929190818152602001838380828437600081840152601f19601f820116905080830192505050505050509192919290505050610533565b6040518082815260200191505060405180910390f35b34801561018357600080fd5b506101b06004803603602081101561019a57600080fd5b8101908080359060200190929190505050610818565b005b3480156101be57600080fd5b506101eb600480360360208110156101d557600080fd5b8101908080359060200190929190505050610a94565b005b3480156101f957600080fd5b506102266004803603602081101561021057600080fd5b8101908080359060200190929190505050610d68565b604051808673ffffffffffffffffffffffffffffffffffffffff1673ffffffffffffffffffffffffffffffffffffffff1681526020018573ffffffffffffffffffffffffffffffffffffffff1673ffffffffffffffffffffffffffffffffffffffff1681526020018481526020018060200183151515158152602001828103825284818151815260200191508051906020019080838360005b838110156102da5780820151818401526020810190506102bf565b50505050905090810190601f1680156103075780820380516001836020036101000a031916815260200191505b50965050505050505060405180910390f35b34801561032557600080fd5b5061032e610fb9565b005b34801561033c57600080fd5b506103456110f2565b604051808273ffffffffffffffffffffffffffffffffffffffff1673ffffffffffffffffffffffffffffffffffffffff16815260200191505060405180910390f35b34801561039357600080fd5b5061039c61111b565b604051808215151515815260200191505060405180910390f35b3480156103c257600080fd5b506103ef600480360360208110156103d957600080fd5b8101908080359060200190929190505050611172565b604051808673ffffffffffffffffffffffffffffffffffffffff1673ffffffffffffffffffffffffffffffffffffffff1681526020018573ffffffffffffffffffffffffffffffffffffffff1673ffffffffffffffffffffffffffffffffffffffff1681526020018481526020018060200183151515158152602001828103825284818151815260200191508051906020019080838360005b838110156104a3578082015181840152602081019050610488565b50505050905090810190601f1680156104d05780820380516001836020036101000a031916815260200191505b50965050505050505060405180910390f35b3480156104ee57600080fd5b506105316004803603602081101561050557600080fd5b81019080803573ffffffffffffffffffffffffffffffffffffffff16906020019092919050505061128d565b005b60008034116105aa576040517f08c379a00000000000000000000000000000000000000000000000000000000081526004018080602001828103825260178152602001807f496e73756666696369656e742066756e64732073656e7400000000000000000081525060200191505060405180910390fd5b3373ffffffffffffffffffffffffffffffffffffffff168373ffffffffffffffffffffffffffffffffffffffff16141561064c576040517f08c379a00000000000000000000000000000000000000000000000000000000081526004018080602001828103825260138152602001807f43616e6e6f742073656e6420746f2073656c660000000000000000000000000081525060200191505060405180910390fd5b6040518060a001604052803373ffffffffffffffffffffffffffffffffffffffff1681526020018473ffffffffffffffffffffffffffffffffffffffff1681526020013481526020018381526020016000151581525060016000600254815260200190815260200160002060008201518160000160006101000a81548173ffffffffffffffffffffffffffffffffffffffff021916908373ffffffffffffffffffffffffffffffffffffffff16021790555060208201518160010160006101000a81548173ffffffffffffffffffffffffffffffffffffffff021916908373ffffffffffffffffffffffffffffffffffffffff16021790555060408201518160020155606082015181600301908051906020019061076b929190611457565b5060808201518160040160006101000a81548160ff021916908315150217905550905050600254905060016002600082825401925050819055508273ffffffffffffffffffffffffffffffffffffffff163373ffffffffffffffffffffffffffffffffffffffff167f7ceb17f446514df98b2f8508b70e2099e7072ec0575cacd0b77c1e6be9694ce03484604051808381526020018281526020019250505060405180910390a392915050565b6001600082815260200190815260200160002060010160009054906101000a900473ffffffffffffffffffffffffffffffffffffffff1673ffffffffffffffffffffffffffffffffffffffff163373ffffffffffffffffffffffffffffffffffffffff16146108d2576040517f08c379a00000000000000000000000000000000000000000000000000000000081526004018080602001828103825260228152602001806115806022913960400191505060405180910390fd5b600015156001600083815260200190815260200160002060040160009054906101000a900460ff1615151461096f576040517f08c379a000000000000000000000000000000000000000000000000000000000815260040180806020018281038252601f8152602001807f5472616e73616374696f6e20697320616c726561647920636f6d706c6574650081525060200191505060405180910390fd5b600060016000838152602001908152602001600020905060018160040160006101000a81548160ff0219169083151502179055508060010160009054906101000a900473ffffffffffffffffffffffffffffffffffffffff1673ffffffffffffffffffffffffffffffffffffffff166108fc82600201549081150290604051600060405180830381858888f19350505050158015610a11573d6000803e3d6000fd5b508060010160009054906101000a900473ffffffffffffffffffffffffffffffffffffffff1673ffffffffffffffffffffffffffffffffffffffff167ff9226daf630542048a23086c6af599511aac100ec8f532793cc9697d061bed7e826002015484604051808381526020018281526020019250505060405180910390a25050565b6001600082815260200190815260200160002060000160009054906101000a900473ffffffffffffffffffffffffffffffffffffffff1673ffffffffffffffffffffffffffffffffffffffff163373ffffffffffffffffffffffffffffffffffffffff1614610b6b576040517f08c379a00000000000000000000000000000000000000000000000000000000081526004018080602001828103825260168152602001807f596f7520617265206e6f742074686520736f757263650000000000000000000081525060200191505060405180910390fd5b600015156001600083815260200190815260200160002060040160009054906101000a900460ff16151514610c08576040517f08c379a000000000000000000000000000000000000000000000000000000000815260040180806020018281038252601f8152602001807f5472616e73616374696f6e20697320616c726561647920636f6d706c6574650081525060200191505060405180910390fd5b600060016000838152602001908152602001600020905060018160040160006101000a81548160ff0219169083151502179055508060000160009054906101000a900473ffffffffffffffffffffffffffffffffffffffff1673ffffffffffffffffffffffffffffffffffffffff166108fc82600201549081150290604051600060405180830381858888f19350505050158015610caa573d6000803e3d6000fd5b508060010160009054906101000a900473ffffffffffffffffffffffffffffffffffffffff1673ffffffffffffffffffffffffffffffffffffffff168160000160009054906101000a900473ffffffffffffffffffffffffffffffffffffffff1673ffffffffffffffffffffffffffffffffffffffff167f05e356da7c5e41d62dc5402a52b7df613a14f2a05fb844decbf3232be4ade2ae836002015485604051808381526020018281526020019250505060405180910390a35050565b6000806000606060006002548610610de8576040517f08c379a00000000000000000000000000000000000000000000000000000000081526004018080602001828103825260168152602001807f496e76616c6964207472616e73616374696f6e2049440000000000000000000081525060200191505060405180910390fd5b610df06114d7565b600160008881526020019081526020016000206040518060a00160405290816000820160009054906101000a900473ffffffffffffffffffffffffffffffffffffffff1673ffffffffffffffffffffffffffffffffffffffff1673ffffffffffffffffffffffffffffffffffffffff1681526020016001820160009054906101000a900473ffffffffffffffffffffffffffffffffffffffff1673ffffffffffffffffffffffffffffffffffffffff1673ffffffffffffffffffffffffffffffffffffffff16815260200160028201548152602001600382018054600181600116156101000203166002900480601f016020809104026020016040519081016040528092919081815260200182805460018160011615610100020316600290048015610f5d5780601f10610f3257610100808354040283529160200191610f5d565b820191906000526020600020905b815481529060010190602001808311610f4057829003601f168201915b505050505081526020016004820160009054906101000a900460ff161515151581525050905080600001518160200151826040015183606001518460800151849450839350819150955095509550955095505091939590929450565b610fc161111b565b611033576040517f08c379a00000000000000000000000000000000000000000000000000000000081526004018080602001828103825260208152602001807f4f776e61626c653a2063616c6c6572206973206e6f7420746865206f776e657281525060200191505060405180910390fd5b600073ffffffffffffffffffffffffffffffffffffffff166000809054906101000a900473ffffffffffffffffffffffffffffffffffffffff1673ffffffffffffffffffffffffffffffffffffffff167f8be0079c531659141344cd1fd0a4f28419497f9722a3daafe3b4186f6b6457e060405160405180910390a360008060006101000a81548173ffffffffffffffffffffffffffffffffffffffff021916908373ffffffffffffffffffffffffffffffffffffffff160217905550565b60008060009054906101000a900473ffffffffffffffffffffffffffffffffffffffff16905090565b60008060009054906101000a900473ffffffffffffffffffffffffffffffffffffffff1673ffffffffffffffffffffffffffffffffffffffff163373ffffffffffffffffffffffffffffffffffffffff1614905090565b60016020528060005260406000206000915090508060000160009054906101000a900473ffffffffffffffffffffffffffffffffffffffff16908060010160009054906101000a900473ffffffffffffffffffffffffffffffffffffffff1690806002015490806003018054600181600116156101000203166002900480601f0160208091040260200160405190810160405280929190818152602001828054600181600116156101000203166002900480156112705780601f1061124557610100808354040283529160200191611270565b820191906000526020600020905b81548152906001019060200180831161125357829003601f168201915b5050505050908060040160009054906101000a900460ff16905085565b61129561111b565b611307576040517f08c379a00000000000000000000000000000000000000000000000000000000081526004018080602001828103825260208152602001807f4f776e61626c653a2063616c6c6572206973206e6f7420746865206f776e657281525060200191505060405180910390fd5b61131081611313565b50565b600073ffffffffffffffffffffffffffffffffffffffff168173ffffffffffffffffffffffffffffffffffffffff161415611399576040517f08c379a000000000000000000000000000000000000000000000000000000000815260040180806020018281038252602681526020018061155a6026913960400191505060405180910390fd5b8073ffffffffffffffffffffffffffffffffffffffff166000809054906101000a900473ffffffffffffffffffffffffffffffffffffffff1673ffffffffffffffffffffffffffffffffffffffff167f8be0079c531659141344cd1fd0a4f28419497f9722a3daafe3b4186f6b6457e060405160405180910390a3806000806101000a81548173ffffffffffffffffffffffffffffffffffffffff021916908373ffffffffffffffffffffffffffffffffffffffff16021790555050565b828054600181600116156101000203166002900490600052602060002090601f016020900481019282601f1061149857805160ff19168380011785556114c6565b828001600101855582156114c6579182015b828111156114c55782518255916020019190600101906114aa565b5b5090506114d39190611534565b5090565b6040518060a00160405280600073ffffffffffffffffffffffffffffffffffffffff168152602001600073ffffffffffffffffffffffffffffffffffffffff16815260200160008152602001606081526020016000151581525090565b61155691905b8082111561155257600081600090555060010161153a565b5090565b9056fe4f776e61626c653a206e6577206f776e657220697320746865207a65726f2061646472657373596f7520617265206e6f742074686520696e74656e64656420726563697069656e74a165627a7a723058206f4743df5e76c1bc7798e08df225cb80f1ce6e1d0381f736d2be3c8a2d6eeb320029",
  "source": "pragma solidity ^0.5.0;\r\n\r\nimport \"openzeppelin-solidity/contracts/ownership/Ownable.sol\";\r\n///@title PaySafe\r\n///@author suhailgme\r\n///@notice this contract implements reversable transactions\r\n\r\ncontract PaySafe is Ownable {\r\n    event LogNewTransaction(address indexed source, address indexed destination, uint value, uint transactionId);\r\n    event LogWithdrawal(address indexed destination, uint value, uint transactionId);\r\n    event LogCancelTransaction(address indexed source, address indexed destination, uint value, uint transactionId);\r\n    mapping (uint => Transaction) public transactions;\r\n    uint transactionId;\r\n\r\n    struct Transaction {\r\n     address payable source;\r\n     address payable destination;\r\n     uint value;\r\n     bytes data;\r\n     bool complete;\r\n    }\r\n    // @dev Fallback function allows to deposit ether.\r\n    function() external payable {}\r\n\r\n    /*\r\n     * Public functions\r\n     */\r\n    /// @dev Allows a user to submit a new transaction.\r\n    /// @param _destination Transaction target address.\r\n    /// @param _data Transaction data payload.\r\n    /// @return Returns the transaction ID\r\n    function newTransaction(\r\n        address payable _destination,\r\n        bytes memory _data\r\n    )\r\n        public\r\n        payable\r\n        returns (uint _transactionId)\r\n    {\r\n        require(msg.value > 0, \"Insufficient funds sent\");\r\n        require(_destination != msg.sender, \"Cannot send to self\");\r\n        transactions[transactionId] = Transaction({\r\n            source: msg.sender,\r\n            destination: _destination,\r\n            value: msg.value,\r\n            data: _data,\r\n            complete: false\r\n        });\r\n        _transactionId = transactionId;\r\n        transactionId +=1;\r\n        emit LogNewTransaction(msg.sender, _destination, msg.value, _transactionId);\r\n    }\r\n    ///@dev this function gets the specified transaction object\r\n    ///@notice THis function will retrieve the transaction with the id `_transactionId`\r\n    ///@param _transactionId the ID of the transaction to retrieve\r\n    ///@return Returns the source address\r\n    ///@return Returns the destination address\r\n    ///@return Returns the value sent\r\n    ///@return Returns the data payload\r\n    ///@return Returns true for a complete transaction, otherwise false\r\n    function getTransaction(uint _transactionId) public view\r\n    returns\r\n    (\r\n        address source,\r\n        address destination,\r\n        uint value,\r\n        bytes memory data,\r\n        bool complete\r\n    )\r\n    {\r\n        require(_transactionId < transactionId, \"Invalid transaction ID\");\r\n        Transaction memory currentTransaction = transactions[_transactionId];\r\n        return\r\n        (\r\n            currentTransaction.source,\r\n            currentTransaction.destination,\r\n            currentTransaction.value,\r\n            currentTransaction.data,\r\n            currentTransaction.complete\r\n        );\r\n    }\r\n    ///@dev Allows withdrawl of funds by the destination (recipient) address only\r\n    ///@notice Withdraw the funds sent to the destination address from transaction `_transactionId`\r\n    ///@param _transactionId of the transaction to withdraw funds from\r\n    function withdraw(uint _transactionId) public{\r\n        require(msg.sender == transactions[_transactionId].destination, \"You are not the intended recipient\");\r\n        require(transactions[_transactionId].complete == false, \"Transaction is already complete\");\r\n        Transaction storage currentTransaction = transactions[_transactionId];\r\n        currentTransaction.complete = true;\r\n        currentTransaction.destination.transfer(currentTransaction.value);\r\n        emit LogWithdrawal(currentTransaction.destination, currentTransaction.value, _transactionId);\r\n\r\n    }\r\n    ///@dev Allows the source (sender) to cancel a transaction if it has not yet ben accepted by the destination\r\n    ///@notice Cancel a pending transaction with the ID `_transactionId` if you are the sender\r\n    ///@param _transactionId of the transaction to be cancelled\r\n    function cancelTransaction(uint _transactionId) public{\r\n        require(msg.sender == transactions[_transactionId].source, \"You are not the source\");\r\n        require(transactions[_transactionId].complete == false, \"Transaction is already complete\");\r\n        Transaction storage currentTransaction = transactions[_transactionId];\r\n        currentTransaction.complete = true;\r\n        currentTransaction.source.transfer(currentTransaction.value);\r\n        emit LogCancelTransaction(currentTransaction.source, currentTransaction.destination, currentTransaction.value, _transactionId);\r\n    }\r\n}",
  "sourcePath": "C:/Users/suhailRyzen/Dropbox/School_Stuff/Consensys/PaySafe/contracts/PaySafe.sol",
  "compiler": {
    "name": "solc",
    "version": "0.5.8+commit.23d335f2.Emscripten.clang"
  },
  "schemaVersion": "3.0.11",
  "updatedAt": "2019-07-28T02:42:35.741Z",
  "devdoc": {
    "methods": {
      "cancelTransaction(uint256)": {
        "params": {
          "_transactionId": "of the transaction to be cancelled"
        }
      },
      "getTransaction(uint256)": {
        "return": "Returns true for a complete transaction, otherwise false"
      },
      "isOwner()": {
        "details": "Returns true if the caller is the current owner."
      },
      "newTransaction(address,bytes)": {
        "return": "Returns the transaction ID"
      },
      "owner()": {
        "details": "Returns the address of the current owner."
      },
      "renounceOwnership()": {
        "details": "Leaves the contract without owner. It will not be possible to call `onlyOwner` functions anymore. Can only be called by the current owner.     * > Note: Renouncing ownership will leave the contract without an owner, thereby removing any functionality that is only available to the owner."
      },
      "transferOwnership(address)": {
        "details": "Transfers ownership of the contract to a new account (`newOwner`). Can only be called by the current owner."
      },
      "withdraw(uint256)": {
        "params": {
          "_transactionId": "of the transaction to withdraw funds from"
        }
      }
    }
  },
  "userdoc": {
    "methods": {},
    "notice": "this contract implements reversable transactions"
  }
}