{
  "contractName": "PaySafe",
  "abi": [
    {
      "constant": false,
      "inputs": [],
      "name": "renounceOwnership",
      "outputs": [],
      "payable": false,
      "stateMutability": "nonpayable",
      "type": "function"
    },
    {
      "constant": true,
      "inputs": [],
      "name": "contractPaused",
      "outputs": [
        {
          "name": "",
          "type": "bool"
        }
      ],
      "payable": false,
      "stateMutability": "view",
      "type": "function"
    },
    {
      "constant": true,
      "inputs": [],
      "name": "owner",
      "outputs": [
        {
          "name": "",
          "type": "address"
        }
      ],
      "payable": false,
      "stateMutability": "view",
      "type": "function"
    },
    {
      "constant": true,
      "inputs": [],
      "name": "isOwner",
      "outputs": [
        {
          "name": "",
          "type": "bool"
        }
      ],
      "payable": false,
      "stateMutability": "view",
      "type": "function"
    },
    {
      "constant": true,
      "inputs": [
        {
          "name": "",
          "type": "uint256"
        }
      ],
      "name": "transactions",
      "outputs": [
        {
          "name": "source",
          "type": "address"
        },
        {
          "name": "destination",
          "type": "address"
        },
        {
          "name": "value",
          "type": "uint256"
        },
        {
          "name": "data",
          "type": "bytes"
        },
        {
          "name": "complete",
          "type": "bool"
        },
        {
          "name": "cancelled",
          "type": "bool"
        }
      ],
      "payable": false,
      "stateMutability": "view",
      "type": "function"
    },
    {
      "constant": false,
      "inputs": [
        {
          "name": "newOwner",
          "type": "address"
        }
      ],
      "name": "transferOwnership",
      "outputs": [],
      "payable": false,
      "stateMutability": "nonpayable",
      "type": "function"
    },
    {
      "payable": true,
      "stateMutability": "payable",
      "type": "fallback"
    },
    {
      "anonymous": false,
      "inputs": [
        {
          "indexed": true,
          "name": "source",
          "type": "address"
        },
        {
          "indexed": true,
          "name": "destination",
          "type": "address"
        },
        {
          "indexed": false,
          "name": "value",
          "type": "uint256"
        },
        {
          "indexed": false,
          "name": "transactionId",
          "type": "uint256"
        }
      ],
      "name": "LogNewTransaction",
      "type": "event"
    },
    {
      "anonymous": false,
      "inputs": [
        {
          "indexed": true,
          "name": "destination",
          "type": "address"
        },
        {
          "indexed": false,
          "name": "value",
          "type": "uint256"
        },
        {
          "indexed": false,
          "name": "transactionId",
          "type": "uint256"
        }
      ],
      "name": "LogWithdrawal",
      "type": "event"
    },
    {
      "anonymous": false,
      "inputs": [
        {
          "indexed": true,
          "name": "source",
          "type": "address"
        },
        {
          "indexed": true,
          "name": "destination",
          "type": "address"
        },
        {
          "indexed": false,
          "name": "value",
          "type": "uint256"
        },
        {
          "indexed": false,
          "name": "transactionId",
          "type": "uint256"
        }
      ],
      "name": "LogCancelTransaction",
      "type": "event"
    },
    {
      "anonymous": false,
      "inputs": [
        {
          "indexed": true,
          "name": "previousOwner",
          "type": "address"
        },
        {
          "indexed": true,
          "name": "newOwner",
          "type": "address"
        }
      ],
      "name": "OwnershipTransferred",
      "type": "event"
    },
    {
      "constant": false,
      "inputs": [],
      "name": "circuitBreaker",
      "outputs": [],
      "payable": false,
      "stateMutability": "nonpayable",
      "type": "function"
    },
    {
      "constant": false,
      "inputs": [
        {
          "name": "_destination",
          "type": "address"
        },
        {
          "name": "_data",
          "type": "bytes"
        }
      ],
      "name": "newTransaction",
      "outputs": [
        {
          "name": "_transactionId",
          "type": "uint256"
        }
      ],
      "payable": true,
      "stateMutability": "payable",
      "type": "function"
    },
    {
      "constant": true,
      "inputs": [
        {
          "name": "_transactionId",
          "type": "uint256"
        }
      ],
      "name": "getTransaction",
      "outputs": [
        {
          "name": "source",
          "type": "address"
        },
        {
          "name": "destination",
          "type": "address"
        },
        {
          "name": "value",
          "type": "uint256"
        },
        {
          "name": "data",
          "type": "bytes"
        },
        {
          "name": "complete",
          "type": "bool"
        },
        {
          "name": "cancelled",
          "type": "bool"
        }
      ],
      "payable": false,
      "stateMutability": "view",
      "type": "function"
    },
    {
      "constant": false,
      "inputs": [
        {
          "name": "_transactionId",
          "type": "uint256"
        }
      ],
      "name": "withdraw",
      "outputs": [],
      "payable": false,
      "stateMutability": "nonpayable",
      "type": "function"
    },
    {
      "constant": false,
      "inputs": [
        {
          "name": "_transactionId",
          "type": "uint256"
        }
      ],
      "name": "cancelTransaction",
      "outputs": [],
      "payable": false,
      "stateMutability": "nonpayable",
      "type": "function"
    }
  ],
  "bytecode": "0x60806040526000600360006101000a81548160ff021916908315150217905550336000806101000a81548173ffffffffffffffffffffffffffffffffffffffff021916908373ffffffffffffffffffffffffffffffffffffffff1602179055506000809054906101000a900473ffffffffffffffffffffffffffffffffffffffff1673ffffffffffffffffffffffffffffffffffffffff16600073ffffffffffffffffffffffffffffffffffffffff167f8be0079c531659141344cd1fd0a4f28419497f9722a3daafe3b4186f6b6457e060405160405180910390a3611954806100ea6000396000f3fe60806040526004361061009c5760003560e01c8063715018a611610064578063715018a6146103a05780638a67456a146103b75780638da5cb5b146103e65780638f32d59b1461043d5780639ace38c21461046c578063f2fde38b146105a35761009c565b806309ca4a18146100ed57806316efd941146101dc5780632e1a7d4d146101f35780633380c0d81461022e57806333ea3dc814610269575b6040517f08c379a00000000000000000000000000000000000000000000000000000000081526004018080602001828103825260278152602001806118e06027913960400191505060405180910390fd5b6101c66004803603604081101561010357600080fd5b81019080803573ffffffffffffffffffffffffffffffffffffffff1690602001909291908035906020019064010000000081111561014057600080fd5b82018360208201111561015257600080fd5b8035906020019184600183028401116401000000008311171561017457600080fd5b91908080601f016020809104026020016040519081016040528093929190818152602001838380828437600081840152601f19601f8201169050808301925050505050505091929192905050506105f4565b6040518082815260200191505060405180910390f35b3480156101e857600080fd5b506101f161098b565b005b3480156101ff57600080fd5b5061022c6004803603602081101561021657600080fd5b8101908080359060200190929190505050610a5f565b005b34801561023a57600080fd5b506102676004803603602081101561025157600080fd5b8101908080359060200190929190505050610d83565b005b34801561027557600080fd5b506102a26004803603602081101561028c57600080fd5b8101908080359060200190929190505050611076565b604051808773ffffffffffffffffffffffffffffffffffffffff1673ffffffffffffffffffffffffffffffffffffffff1681526020018673ffffffffffffffffffffffffffffffffffffffff1673ffffffffffffffffffffffffffffffffffffffff168152602001858152602001806020018415151515815260200183151515158152602001828103825285818151815260200191508051906020019080838360005b83811015610360578082015181840152602081019050610345565b50505050905090810190601f16801561038d5780820380516001836020036101000a031916815260200191505b5097505050505050505060405180910390f35b3480156103ac57600080fd5b506103b56112ea565b005b3480156103c357600080fd5b506103cc611423565b604051808215151515815260200191505060405180910390f35b3480156103f257600080fd5b506103fb611436565b604051808273ffffffffffffffffffffffffffffffffffffffff1673ffffffffffffffffffffffffffffffffffffffff16815260200191505060405180910390f35b34801561044957600080fd5b5061045261145f565b604051808215151515815260200191505060405180910390f35b34801561047857600080fd5b506104a56004803603602081101561048f57600080fd5b81019080803590602001909291905050506114b6565b604051808773ffffffffffffffffffffffffffffffffffffffff1673ffffffffffffffffffffffffffffffffffffffff1681526020018673ffffffffffffffffffffffffffffffffffffffff1673ffffffffffffffffffffffffffffffffffffffff168152602001858152602001806020018415151515815260200183151515158152602001828103825285818151815260200191508051906020019080838360005b83811015610563578082015181840152602081019050610548565b50505050905090810190601f1680156105905780820380516001836020036101000a031916815260200191505b5097505050505050505060405180910390f35b3480156105af57600080fd5b506105f2600480360360208110156105c657600080fd5b81019080803573ffffffffffffffffffffffffffffffffffffffff1690602001909291905050506115e4565b005b6000801515600360009054906101000a900460ff1615151461067e576040517f08c379a00000000000000000000000000000000000000000000000000000000081526004018080602001828103825260188152602001807f436f6e747261637420686173206265656e20706175736564000000000000000081525060200191505060405180910390fd5b600034116106f4576040517f08c379a00000000000000000000000000000000000000000000000000000000081526004018080602001828103825260178152602001807f496e73756666696369656e742066756e64732073656e7400000000000000000081525060200191505060405180910390fd5b3373ffffffffffffffffffffffffffffffffffffffff168373ffffffffffffffffffffffffffffffffffffffff161415610796576040517f08c379a00000000000000000000000000000000000000000000000000000000081526004018080602001828103825260138152602001807f43616e6e6f742073656e6420746f2073656c660000000000000000000000000081525060200191505060405180910390fd5b6040518060c001604052803373ffffffffffffffffffffffffffffffffffffffff1681526020018473ffffffffffffffffffffffffffffffffffffffff1681526020013481526020018381526020016000151581526020016000151581525060016000600254815260200190815260200160002060008201518160000160006101000a81548173ffffffffffffffffffffffffffffffffffffffff021916908373ffffffffffffffffffffffffffffffffffffffff16021790555060208201518160010160006101000a81548173ffffffffffffffffffffffffffffffffffffffff021916908373ffffffffffffffffffffffffffffffffffffffff1602179055506040820151816002015560608201518160030190805190602001906108be9291906117ae565b5060808201518160040160006101000a81548160ff02191690831515021790555060a08201518160040160016101000a81548160ff021916908315150217905550905050600254905060016002600082825401925050819055508273ffffffffffffffffffffffffffffffffffffffff163373ffffffffffffffffffffffffffffffffffffffff167f7ceb17f446514df98b2f8508b70e2099e7072ec0575cacd0b77c1e6be9694ce03484604051808381526020018281526020019250505060405180910390a392915050565b61099361145f565b610a05576040517f08c379a00000000000000000000000000000000000000000000000000000000081526004018080602001828103825260208152602001807f4f776e61626c653a2063616c6c6572206973206e6f7420746865206f776e657281525060200191505060405180910390fd5b60001515600360009054906101000a900460ff1615151415610a41576001600360006101000a81548160ff021916908315150217905550610a5d565b6000600360006101000a81548160ff0219169083151502179055505b565b60001515600360009054906101000a900460ff16151514610ae8576040517f08c379a00000000000000000000000000000000000000000000000000000000081526004018080602001828103825260188152602001807f436f6e747261637420686173206265656e20706175736564000000000000000081525060200191505060405180910390fd5b80600015156001600083815260200190815260200160002060040160009054906101000a900460ff16151514610b86576040517f08c379a000000000000000000000000000000000000000000000000000000000815260040180806020018281038252601f8152602001807f5472616e73616374696f6e20697320616c726561647920636f6d706c6574650081525060200191505060405180910390fd5b6001600083815260200190815260200160002060010160009054906101000a900473ffffffffffffffffffffffffffffffffffffffff1673ffffffffffffffffffffffffffffffffffffffff163373ffffffffffffffffffffffffffffffffffffffff1614610c40576040517f08c379a00000000000000000000000000000000000000000000000000000000081526004018080602001828103825260228152602001806119076022913960400191505060405180910390fd5b600060016000848152602001908152602001600020905060018160040160006101000a81548160ff02191690831515021790555060008160040160016101000a81548160ff0219169083151502179055508060010160009054906101000a900473ffffffffffffffffffffffffffffffffffffffff1673ffffffffffffffffffffffffffffffffffffffff166108fc82600201549081150290604051600060405180830381858888f19350505050158015610cff573d6000803e3d6000fd5b508060010160009054906101000a900473ffffffffffffffffffffffffffffffffffffffff1673ffffffffffffffffffffffffffffffffffffffff167ff9226daf630542048a23086c6af599511aac100ec8f532793cc9697d061bed7e826002015485604051808381526020018281526020019250505060405180910390a2505050565b80600015156001600083815260200190815260200160002060040160009054906101000a900460ff16151514610e21576040517f08c379a000000000000000000000000000000000000000000000000000000000815260040180806020018281038252601f8152602001807f5472616e73616374696f6e20697320616c726561647920636f6d706c6574650081525060200191505060405180910390fd5b6001600083815260200190815260200160002060000160009054906101000a900473ffffffffffffffffffffffffffffffffffffffff1673ffffffffffffffffffffffffffffffffffffffff163373ffffffffffffffffffffffffffffffffffffffff1614610ef8576040517f08c379a00000000000000000000000000000000000000000000000000000000081526004018080602001828103825260168152602001807f596f7520617265206e6f742074686520736f757263650000000000000000000081525060200191505060405180910390fd5b600060016000848152602001908152602001600020905060018160040160006101000a81548160ff02191690831515021790555060018160040160016101000a81548160ff0219169083151502179055508060000160009054906101000a900473ffffffffffffffffffffffffffffffffffffffff1673ffffffffffffffffffffffffffffffffffffffff166108fc82600201549081150290604051600060405180830381858888f19350505050158015610fb7573d6000803e3d6000fd5b508060010160009054906101000a900473ffffffffffffffffffffffffffffffffffffffff1673ffffffffffffffffffffffffffffffffffffffff168160000160009054906101000a900473ffffffffffffffffffffffffffffffffffffffff1673ffffffffffffffffffffffffffffffffffffffff167f05e356da7c5e41d62dc5402a52b7df613a14f2a05fb844decbf3232be4ade2ae836002015486604051808381526020018281526020019250505060405180910390a3505050565b6000806000606060008060025487106110f7576040517f08c379a00000000000000000000000000000000000000000000000000000000081526004018080602001828103825260168152602001807f496e76616c6964207472616e73616374696f6e2049440000000000000000000081525060200191505060405180910390fd5b6110ff61182e565b600160008981526020019081526020016000206040518060c00160405290816000820160009054906101000a900473ffffffffffffffffffffffffffffffffffffffff1673ffffffffffffffffffffffffffffffffffffffff1673ffffffffffffffffffffffffffffffffffffffff1681526020016001820160009054906101000a900473ffffffffffffffffffffffffffffffffffffffff1673ffffffffffffffffffffffffffffffffffffffff1673ffffffffffffffffffffffffffffffffffffffff16815260200160028201548152602001600382018054600181600116156101000203166002900480601f01602080910402602001604051908101604052809291908181526020018280546001816001161561010002031660029004801561126c5780601f106112415761010080835404028352916020019161126c565b820191906000526020600020905b81548152906001019060200180831161124f57829003601f168201915b505050505081526020016004820160009054906101000a900460ff161515151581526020016004820160019054906101000a900460ff1615151515815250509050806000015181602001518260400151836060015184608001518560a001518595508494508292509650965096509650965096505091939550919395565b6112f261145f565b611364576040517f08c379a00000000000000000000000000000000000000000000000000000000081526004018080602001828103825260208152602001807f4f776e61626c653a2063616c6c6572206973206e6f7420746865206f776e657281525060200191505060405180910390fd5b600073ffffffffffffffffffffffffffffffffffffffff166000809054906101000a900473ffffffffffffffffffffffffffffffffffffffff1673ffffffffffffffffffffffffffffffffffffffff167f8be0079c531659141344cd1fd0a4f28419497f9722a3daafe3b4186f6b6457e060405160405180910390a360008060006101000a81548173ffffffffffffffffffffffffffffffffffffffff021916908373ffffffffffffffffffffffffffffffffffffffff160217905550565b600360009054906101000a900460ff1681565b60008060009054906101000a900473ffffffffffffffffffffffffffffffffffffffff16905090565b60008060009054906101000a900473ffffffffffffffffffffffffffffffffffffffff1673ffffffffffffffffffffffffffffffffffffffff163373ffffffffffffffffffffffffffffffffffffffff1614905090565b60016020528060005260406000206000915090508060000160009054906101000a900473ffffffffffffffffffffffffffffffffffffffff16908060010160009054906101000a900473ffffffffffffffffffffffffffffffffffffffff1690806002015490806003018054600181600116156101000203166002900480601f0160208091040260200160405190810160405280929190818152602001828054600181600116156101000203166002900480156115b45780601f10611589576101008083540402835291602001916115b4565b820191906000526020600020905b81548152906001019060200180831161159757829003601f168201915b5050505050908060040160009054906101000a900460ff16908060040160019054906101000a900460ff16905086565b6115ec61145f565b61165e576040517f08c379a00000000000000000000000000000000000000000000000000000000081526004018080602001828103825260208152602001807f4f776e61626c653a2063616c6c6572206973206e6f7420746865206f776e657281525060200191505060405180910390fd5b6116678161166a565b50565b600073ffffffffffffffffffffffffffffffffffffffff168173ffffffffffffffffffffffffffffffffffffffff1614156116f0576040517f08c379a00000000000000000000000000000000000000000000000000000000081526004018080602001828103825260268152602001806118ba6026913960400191505060405180910390fd5b8073ffffffffffffffffffffffffffffffffffffffff166000809054906101000a900473ffffffffffffffffffffffffffffffffffffffff1673ffffffffffffffffffffffffffffffffffffffff167f8be0079c531659141344cd1fd0a4f28419497f9722a3daafe3b4186f6b6457e060405160405180910390a3806000806101000a81548173ffffffffffffffffffffffffffffffffffffffff021916908373ffffffffffffffffffffffffffffffffffffffff16021790555050565b828054600181600116156101000203166002900490600052602060002090601f016020900481019282601f106117ef57805160ff191683800117855561181d565b8280016001018555821561181d579182015b8281111561181c578251825591602001919060010190611801565b5b50905061182a9190611894565b5090565b6040518060c00160405280600073ffffffffffffffffffffffffffffffffffffffff168152602001600073ffffffffffffffffffffffffffffffffffffffff16815260200160008152602001606081526020016000151581526020016000151581525090565b6118b691905b808211156118b257600081600090555060010161189a565b5090565b9056fe4f776e61626c653a206e6577206f776e657220697320746865207a65726f2061646472657373557365206e65775472616e73616374696f6e282920746f20637265617465207061796d656e7473596f7520617265206e6f742074686520696e74656e64656420726563697069656e74a165627a7a7230582053ec2e4c506e7fc6ff7b06fbe1ab2da63dd1821f9a8dbf8c62c6580225412a840029",
  "source": "pragma solidity ^0.5.0;\r\n\r\nimport \"openzeppelin-solidity/contracts/ownership/Ownable.sol\";\r\n\r\n///@title PaySafe\r\n///@author suhailgme\r\n///@notice this contract implements reversable transactions\r\n\r\ncontract PaySafe is Ownable {\r\n    event LogNewTransaction(address indexed source, address indexed destination, uint value, uint transactionId);\r\n    event LogWithdrawal(address indexed destination, uint value, uint transactionId);\r\n    event LogCancelTransaction(address indexed source, address indexed destination, uint value, uint transactionId);\r\n    mapping (uint => Transaction) public transactions;\r\n    uint transactionId;\r\n    bool public contractPaused = false;\r\n\r\n    struct Transaction {\r\n     address payable source;\r\n     address payable destination;\r\n     uint value;\r\n     bytes data;\r\n     bool complete;\r\n     bool cancelled;\r\n    }\r\n    // @dev Fallback function allows to deposit ether.\r\n    function() external payable { revert(\"Use newTransaction() to create payments\");}\r\n    \r\n    /*\r\n     * Admin functions\r\n     */\r\n    /// @dev If the contract is paused, stop the modified function\r\n    modifier checkIfPaused() {\r\n        require(contractPaused == false, \"Contract has been paused\");\r\n        _;\r\n    }\r\n     /// @dev Allows administrator to pause certain functions\r\n    function circuitBreaker() public onlyOwner {\r\n        if (contractPaused == false) { contractPaused = true; }\r\n        else { contractPaused = false; }\r\n    }\r\n    \r\n    /*\r\n    * Transaction state modifier\r\n    */\r\n    \r\n    modifier notComplete(uint _transactionId){require(transactions[_transactionId].complete == false, \"Transaction is already complete\");_;}\r\n\r\n    /*\r\n     * Public functions\r\n     */\r\n    /// @dev Allows a user to submit a new transaction.\r\n    /// @param _destination Transaction target address.\r\n    /// @param _data Transaction data payload.\r\n    /// @return Returns the transaction ID\r\n    function newTransaction(\r\n        address payable _destination,\r\n        bytes memory _data\r\n    )\r\n        public\r\n        payable\r\n        checkIfPaused\r\n        returns (uint _transactionId)\r\n    {\r\n        require(msg.value > 0, \"Insufficient funds sent\");\r\n        require(_destination != msg.sender, \"Cannot send to self\");\r\n        transactions[transactionId] = Transaction({\r\n            source: msg.sender,\r\n            destination: _destination,\r\n            value: msg.value,\r\n            data: _data,\r\n            complete: false,\r\n            cancelled: false\r\n        });\r\n        _transactionId = transactionId;\r\n        transactionId +=1;\r\n        emit LogNewTransaction(msg.sender, _destination, msg.value, _transactionId);\r\n    }\r\n    ///@dev this function gets the specified transaction object\r\n    ///@notice THis function will retrieve the transaction with the id `_transactionId`\r\n    ///@param _transactionId the ID of the transaction to retrieve\r\n    ///@return Returns the source address\r\n    ///@return Returns the destination address\r\n    ///@return Returns the value sent\r\n    ///@return Returns the data payload\r\n    ///@return Returns true for a complete transaction, otherwise false\r\n    function getTransaction(uint _transactionId) public view\r\n    returns\r\n    (\r\n        address source,\r\n        address destination,\r\n        uint value,\r\n        bytes memory data,\r\n        bool complete,\r\n        bool cancelled\r\n    )\r\n    {\r\n        require(_transactionId < transactionId, \"Invalid transaction ID\");\r\n        Transaction memory currentTransaction = transactions[_transactionId];\r\n        return\r\n        (\r\n            currentTransaction.source,\r\n            currentTransaction.destination,\r\n            currentTransaction.value,\r\n            currentTransaction.data,\r\n            currentTransaction.complete,\r\n            currentTransaction.cancelled\r\n        );\r\n    }\r\n    ///@dev Allows withdrawl of funds by the destination (recipient) address only\r\n    ///@notice Withdraw the funds sent to the destination address from transaction `_transactionId`\r\n    ///@param _transactionId of the transaction to withdraw funds from\r\n    function withdraw(uint _transactionId) public checkIfPaused notComplete(_transactionId){\r\n        require(msg.sender == transactions[_transactionId].destination, \"You are not the intended recipient\");\r\n        Transaction storage currentTransaction = transactions[_transactionId];\r\n        currentTransaction.complete = true;\r\n        currentTransaction.cancelled = false;\r\n        currentTransaction.destination.transfer(currentTransaction.value);\r\n        emit LogWithdrawal(currentTransaction.destination, currentTransaction.value, _transactionId);\r\n\r\n    }\r\n    ///@dev Allows the source (sender) to cancel a transaction if it has not yet ben accepted by the destination\r\n    ///@dev if the circuit breaker has been tripped, only cancelTransaction will remain functional\r\n    ///@notice Cancel a pending transaction with the ID `_transactionId` if you are the sender\r\n    ///@param _transactionId of the transaction to be cancelled\r\n    function cancelTransaction(uint _transactionId) public notComplete(_transactionId){\r\n        require(msg.sender == transactions[_transactionId].source, \"You are not the source\");\r\n        Transaction storage currentTransaction = transactions[_transactionId];\r\n        currentTransaction.complete = true;\r\n        currentTransaction.cancelled = true;\r\n        currentTransaction.source.transfer(currentTransaction.value);\r\n        emit LogCancelTransaction(currentTransaction.source, currentTransaction.destination, currentTransaction.value, _transactionId);\r\n    }\r\n}",
  "sourcePath": "C:/Users/suhailRyzen/Dropbox/School_Stuff/Consensys/PaySafe/contracts/PaySafe.sol",
  "compiler": {
    "name": "solc",
    "version": "0.5.8+commit.23d335f2.Emscripten.clang"
  },
  "schemaVersion": "3.0.11",
  "updatedAt": "2019-07-30T11:28:57.613Z",
  "devdoc": {
    "methods": {
      "cancelTransaction(uint256)": {
        "params": {
          "_transactionId": "of the transaction to be cancelled"
        }
      },
      "circuitBreaker()": {
        "details": "Allows administrator to pause certain functions"
      },
      "getTransaction(uint256)": {
        "return": "Returns true for a complete transaction, otherwise false"
      },
      "isOwner()": {
        "details": "Returns true if the caller is the current owner."
      },
      "newTransaction(address,bytes)": {
        "return": "Returns the transaction ID"
      },
      "owner()": {
        "details": "Returns the address of the current owner."
      },
      "renounceOwnership()": {
        "details": "Leaves the contract without owner. It will not be possible to call `onlyOwner` functions anymore. Can only be called by the current owner.     * > Note: Renouncing ownership will leave the contract without an owner, thereby removing any functionality that is only available to the owner."
      },
      "transferOwnership(address)": {
        "details": "Transfers ownership of the contract to a new account (`newOwner`). Can only be called by the current owner."
      },
      "withdraw(uint256)": {
        "params": {
          "_transactionId": "of the transaction to withdraw funds from"
        }
      }
    }
  },
  "userdoc": {
    "methods": {},
    "notice": "this contract implements reversable transactions"
  }
}